:02000004C0D06A
:10000000B0B58CB062B603F0D7FB114C0021B02222
:10001000204603F0B3FC01AD284606F091FB28858D
:1000200080B2002806D01028F0D002F043FB002058
:100030000CB0B0BD01A803F0C2FB03F0ADFE01207F
:1000400006F08AF801F02EF903F0A2FB01F0E6FFBA
:1000500080180020B0B598B068462024214601F0F1
:10006000B3FA08A8214601F093FA10A8214601F03E
:100070008FFA012001F0FEF94F2080001E49085838
:1000800003210140022913D108A80024202221467F
:1000900003F074FC6846014600F038FE10A8015DCC
:1000A0006A46125D4A400255641C082CF6D115E0E0
:1000B0006C462025204621462A4600F041F908A832
:1000C0000146224600F044FC204621462A4600F024
:1000D00037F910A80146224600F03AFC10A8202467
:1000E000214601F0F3F908A8214601F0EFF90920B3
:1000F000000318B0B0BDC04630190020F0B581B083
:1001000014460E460546022B10D13046214600F01B
:100110002BFE2046214600F0F9FD0020295C225CE0
:100120004A402A54401C0828F8D114E020272046D1
:1001300021463A4600F004F930463146224600F0A6
:100140002DFE204621463A4600F0FAF82846294678
:10015000224600F023FE002001B0F0BDF0B599B0BA
:1001600001AE20243046214601F02EFA09AD284682
:10017000214601F00DFA11AF3846214601F008FA88
:10018000012001F077F94F2080000A490858032325
:100190000340384629463246FFF7B0FF384621462D
:1001A00001F094F92846214601F090F90920000356
:1001B00019B0F0BD3019002070B590B06D46202404
:1001C0002846214601F000FA012001F053F908AE5B
:1001D0003046294600F0C8FD3046214601F076F948
:1001E0000920000310B070BDF0B591B005930392E3
:1001F0000C4608907B20C000079023490D18012071
:10020000049001020691284604F050FB002768463E
:10021000076047602026284639462246334604F0C8
:1002200013FB68460760476028463946039A334601
:1002300004F00AFB68460760476028463946059A7D
:10024000334604F001FB6846466009AC046028466A
:1002500004993A463B4604F0F7FA06200A49079A01
:1002600088542846069904F021FB684650C0074987
:1002700028462246334604F0E7FA10212046089A21
:1002800004F02CFB11B0F0BD3019002001800000FB
:1002900080B50121090204F009FB80BD10B582B0D0
:1002A00013460A4600216C462160616004F0CCFAD6
:1002B00002B010BD80B582B020226B4606C301217A
:1002C0000022134604F0C0FA02B080BDF0B583B03E
:1002D0001C4615460E460870089F032803D1304679
:1002E00004F0CEFA04E001200102304604F0DEFA08
:1002F000202069460F604860034930462A4623465D
:1003000004F0A2FA03B0F0BD0180000080B504F053
:1003100083FA80BD10B50022802909D300220B4644
:1003200080240C438454D909521C9B0B0B46F7D1F3
:100330008154501C10BD80B504F0A2FA80BD0000AD
:10034000F0B583B015460E460446232000010C4943
:1003500006220A540F1801200102384604F0A6FABA
:10036000202069460C6048600649384632462B46D4
:1003700004F06AFA2046214600F006F803B0F0BD0A
:10038000301900200180000070B588B004460020BC
:100390001F220B5C8D5C6E463554B354521E401CBC
:1003A0001028F6D16846094A7A4420210B4604F009
:1003B00087FB00201F216A46135C525C2254635461
:1003C000491E401C1028F6D108B070BDA064000082
:1003D000F0B59DB00D46044623200001E14F0621F3
:1003E00039543E1801200102304604F05FFA202201
:1003F000684604604260DC49304616462A46334669
:1004000004F022FA00201F21225C635C3D18AB73CC
:100410007B189A73491E401C0F29F5D13D460E35B5
:10042000D24A7A440A9228463146334604F048FBC1
:10043000684606600B963E462E363046294607959E
:100440002A460A9D2B4604F009FB68460B99016079
:100450003046314632462B4604F0D0FA3D464E3502
:100460000895002128460B9A03F088FA6D20012197
:100470000491395468460B990160284631462A4652
:100480000A9B04F0BBFA68460B99016038466E304F
:10049000099029462A460A9D2B4604F0DFFA684651
:1004A0000B99016038468E300590B1497944039626
:1004B00032462B4604F0D2FA68460B9E0660099835
:1004C0000146059A2B4604F099FA684606600CAD81
:1004D00028462030069009990A460A9E334604F0C1
:1004E000BDFA68460B99016006980146099A3346A1
:1004F00004F0B4FA68460B990160284606990A464A
:10050000334604F0ABFA68460B9901602846294649
:10051000099A334604F0A2FA68460B99016028460E
:100520002946089A334604F099FA684606600B9902
:100530004160904A7A44284629460B9B04F0A6FA6B
:1005400068460B99016028462946069A0A9B04F0E2
:1005500085FA68460B9901603E46CE3630462946FC
:10056000089A0A9B04F07AFA68460B990160059D87
:1005700028463146069632460A9E334604F06EFA05
:1005800068460B990160099829460246334604F0F3
:1005900065FA68460B9E0660284608AB0ECB04F051
:1005A00045FA3846AE30744979440A90324603F031
:1005B000EEF92846314604F009FA002806D06846CC
:1005C00006603846CE306F4A7A4416E068460660C8
:1005D0003A466E32694B7B44059D2846089904F0E3
:1005E0000DFA2846314604F0F1F900287CD068461F
:1005F00006603846CE30624A7A44634B7B440146FB
:1006000004F02CFA684606603A460E325F4D7D448F
:10061000069801462B4604F021FA684606600A98BF
:100620000146039A2B4604F019FA0020ED21795C6B
:10063000049A1140884209D0684606603846CE3098
:100640005949794402460B4604F0F0F968460660C1
:1006500087204000381809903E464E36534D7D4461
:1006600008950A9932462B4604F0C8F968460B995A
:100670000160EE3738460A9932462B4604F0D6F927
:1006800068460B9E066006980146099A2B4604F0C0
:10069000E5F9079809992A463346354604F026FAC3
:1006A0000CAE0420307068460560701C0A9006ABE2
:1006B0000ECB04F0D3F96846056030462130394648
:1006C000079A089B04F0CAF941203146024604F01B
:1006D00051F920460A992A4603F059F92046214645
:1006E00000F066F81DB0F0BD684606603D466E3508
:1006F000274A7A44274E7E4428462946334604F04A
:10070000ADF968460B990160059808992A46334669
:100710000B9E04F08BF90598314604F057F9002838
:1007200009D0684606603846CE301D4A7A441D4BD3
:100730007B44014612E0684606603A466E32164D2A
:100740007D44059808992B4604F058F968460660E0
:100750003846CE30114A7A4401462B4604F07EF9E1
:10076000012063E73019002001800000466400008A
:10077000DC6300003464000000630000926200004B
:10078000D0620000206300006C6200005A6200002A
:10079000566200007261000028610000B261000032
:1007A000FC61000038610000266200000A6200005F
:1007B000F0B593B0019002AF022038707D1C202666
:1007C0002846324603F0E3F84124204639462246C3
:1007D00004F0E6F868460460204639463A463B464F
:1007E00004F094F868460460204639463A463B4691
:1007F00004F08CF868460460204639463A463B4689
:1008000004F084F820463946224604F0B3F80198F3
:100810002946324603F0BBF813B0F0BDB0B50C4624
:1008200005462021204603F0F7FF20462146FFF72A
:10083000ABFD2846214600F001F8B0BDF0B59BB0F5
:10084000044600201F220B5C8D5C02AE3554B3546D
:10085000521E401C1028F6D10AAD0E49794441269B
:100860002846324603F093F820276846076002AB1B
:1008700030462946324604F063F83046294632466F
:1008800004F078F8691C20463A4603F080F81BB063
:10089000F0BDC0463461000070B588B00C46054616
:1008A0006E463046114600F003FA2846214632468D
:1008B00000F0DBF808B070BDF0B58DB017460290BF
:1008C00003AC202520462A4603F061F82034002698
:1008D000802F0BD303A820300026394680223A43CC
:1008E0008255CF09761C890B3946F7D1A7552320AD
:1008F00000010D4906220A540C180120010220466D
:1009000003F0D4FF6846456003AD05602136074912
:1009100020462A46334603F097FF02982946FFF700
:1009200033FD0DB0F0BDC04630190020018000003D
:1009300070B588B01C4605466E463046FFF7BCFFD2
:1009400028463146224600F003F808B070BD00008A
:10095000F0B591B0044600201F230D5CCE5C09AFBA
:100960003E54FD545B1E401C1028F6D100201F2170
:10097000135C555C01AE35547354491E401C10285D
:10098000F6D120206946086009A901AA084B7B44DA
:10099000204604F033F800201F21225C635C2354BE
:1009A0006254491E401C0F29F7D111B0F0BDC0465A
:1009B000BA5E000070B588B01C4605466E463046EB
:1009C000FFF77AFF30463146FFF738FF28463146B9
:1009D000224600F002F808B070BDF0B5A7B0029250
:1009E000049016AF022001903870781C03902026E6
:1009F000324602F0CCFF412420463946224603F01D
:100A0000CFFF05AD01982870681C0299324602F0AC
:100A1000BEFF20462946224603F0C2FF6846046016
:100A2000204639463A462B4603F070FF20463946A9
:100A3000224603F09FFF04980399324602F0A7FF75
:100A400027B0F0BD80B5FFF7F9FE80BD70B588B066
:100A5000144605466E463046FFF7BAFC2846314636
:100A6000224600F002F808B070BDF0B59BB00190CE
:100A700000201F23145CD55C02AE3554F4545B1E79
:100A8000401C1028F6D10AAF022038707D1C2026A9
:100A90002846324602F07BFF412420463946224652
:100AA00003F07EFF6846066002AB204639462246C8
:100AB00003F046FF20463946224603F05BFF0198CB
:100AC0002946324602F063FF1BB0F0BD70B588B016
:100AD0000C4605466E46304611461A46FFF7ECFEB8
:100AE00030463146FFF7AAFE28462146324600F03E
:100AF00003F808B070BD0000F0B5A7B001920490F3
:100B000016AD02262E70681C0295039020273A46E7
:100B100002F03DFF412420462946224603F040FFD3
:100B200005AD2E706E1C304601993A4602F02FFF3B
:100B300020462946224603F033FF684607600E49E7
:100B40007944304632460B4603F070FF6846046035
:100B50002046029E314632462B4603F0D7FE204601
:100B60003146224603F006FF049803993A4602F004
:100B70000EFF27B0F0BDC046285D0000B0B50A46A4
:100B8000044651208000084D2918204600F00EF838
:100B900020462146FFF752FE692080002A18204691
:100BA0002146FFF71AFFB0BD30190020F0B591B013
:100BB00004920391044605AD184979440827284654
:100BC0003A4602F0E4FE28460830202603993246D1
:100BD00002F0DDFE2846283004993A4602F0D7FE9E
:100BE000232000010B4906220A540F18012001029C
:100BF000384603F05BFE684650C00749302338464C
:100C00002A4603F021FE20462146FFF7BDFB11B026
:100C1000F0BDC0463019002001800000CE5D00000C
:100C2000B0B50C46054608461146FFF7A7FF512010
:100C3000800003490A1828462146FFF716FFB0BD79
:100C400030190020F0B59BB0019000201F220B5CF2
:100C50008C5C02AD2C54AB54521E401C1028F6D1B3
:100C60000AAF022038707D1C10497944202628469E
:100C7000324602F08CFE412420463946224603F0DB
:100C80008FFE6846066002AB20463946224603F0D6
:100C900057FE20463946224603F06CFE019829464D
:100CA000324602F074FE1BB0F0BDC046675D000026
:100CB000F0B591B0044600201F220B5C8D5C09AE9C
:100CC0003554B354521E401C1028F6D101AE0025F5
:100CD0002027304629463A4602F050FE0820F07799
:100CE0006846076009A9084B7B442046324603F05A
:100CF000B5FE1F20615D225C62552154401E6D1CB3
:100D00000F28F7D111B0F0BD605B0000F0B58DB0D9
:100D10000D46029003AC13497944062720463A4613
:100D200002F035FEA01D20262946324602F02FFE95
:100D30002320000109490F540D1801200102284603
:100D400003F0B4FD6846029942C0054926232846AF
:100D5000224603F079FD0DB0F0BDC04630190020E9
:100D600001800000D95C000070B58CB00E460446CE
:100D70006D46094979440F22284602F008FE2846AC
:100D80000F302022314602F002FE2F222046294653
:100D9000FFF7D6FA0CB070BD845C0000F0B591B0DE
:100DA000044600201F230D5CCE5C09AF3E54FD5469
:100DB0005B1E401C1028F6D100201F21135C555CDF
:100DC00001AE35547354491E401C1028F6D1202022
:100DD0006946086009A901AA084B7B44204603F034
:100DE00025FE00201F21225C635C23546254491EAF
:100DF000401C0F29F7D111B0F0BDC0466E5A00005B
:100E0000F0B591B0044600201F230D5CCE5C09AF05
:100E10003E54FD545B1E401C1028F6D100201F21BB
:100E2000135C555C01AE35547354491E401C1028A8
:100E3000F6D120206946086009A901AA084B7B4425
:100E4000204603F00BFE00201F21225C635C23542C
:100E50006254491E401C0F29F7D111B0F0BDC046A5
:100E60000A5A0000F0B58FB008910546002402929E
:100E70001046214601931A4602F080FD09AF302149
:100E8000162638460491324602F078FD08990594FA
:100E90007C7528460843002851D009AC1434F64329
:100EA00003960A26284608913246059F3B4605F0E0
:100EB0007BFA079006913246039E3B4605F094FA72
:100EC000281A049908432070A41916340920401BDD
:100ED00008998F41079D0699E3D309AC611C08224C
:100EE000204602F054FD2E202072304609A9091830
:100EF000CA7D401C302AF9D0059BD9432E2A00D048
:100F000019464A42141A09AA143293191633641E58
:100F10001278302A1A46F8D0019A551EAC422A4659
:100F200000D8224609AB591809181631029802F068
:100F30002EFD01200021AC4205D8084603E00498AC
:100F40000299087001200FB0F0BDB0B5002407234E
:100F50002146C25C2502AA18240E090209195C1E4A
:100F6000002B23461446F4D11046B0BDF0B581B035
:100F70000146007802060026002A02D4374634468D
:100F800014E04D1C00273C463E460097392C17D8EC
:100F90007F2108400021224605F0FAF986194F41C9
:100FA000691CE41D287802060D46EFD47F2202401A
:100FB00000211046224605F0EBF98019794101E045
:100FC0000098014601B0F0BDB0B514460D46FFF7DC
:100FD000CDFF2A462346FFF745FFB0BD80B509493E
:100FE000887802220243022A07D14A78FF2A02D0D7
:100FF000824202D180BD487080BD3720400202F09D
:1010000095FDC04630190020B0B53D20C4001F4DED
:10101000285DC00736D0E8783F2811DD0246703AD7
:10102000102A26D8012191401B4A114214D003F006
:101030008BFD1A49884225D1285D800721D421E003
:10104000014620391E2904D801228A4010490A424B
:1010500017D1022815D015E00522114205D003F062
:1010600073FD0E4988420CD00CE01122920111420E
:1010700007D140380C2805D801218140054801429C
:1010800000D0B0BD064802F051FDC0463019002026
:10109000550155555515000080590100115010B0EB
:1010A0008569000010B5FFF799FFFFF7ADFF4F20EE
:1010B000840000F0F9FA7A490851C87841280BDD1C
:1010C000752815DC49282BDC45284BDC422800D04C
:1010D0008FE000F097FD10BD312818DD39282DDC98
:1010E00035285BDC322800D0B2E000F0F1FD10BD05
:1010F0007A281CDC77283ADC76287FD10879497970
:101100000143002900D0C7E001F040FF10BD2328B3
:101110001CDD272821DC24285CD100F005FD10BD52
:101120006F2829DC4A286ED100F0ACFE10BD7D2866
:1011300027DC7B286CD100F0D9FE10BD3D2832DCC5
:101140003A2800D089E000F03FFE10BD02282FD0E1
:10115000202844D100F07CFC10BD282844D100F0A8
:1011600005FB10BD46285FD100F04CFE10BD78286D
:101170005FD1FEF76FFF10BD70285FD101F0CCFC8E
:1011800010BD7E285FD10879032878D0022873D05B
:10119000012800D080E001F0AFFA10BD362861D1FF
:1011A00000F0CFFD10BD3E2861D100F00DFD10BD57
:1011B00000F078F8002000F05DF9012000F0DAF985
:1011C0000224204600F0D6F9204600F0D3F9092089
:1011D000000310BD26285BD100F06EFC10BD222854
:1011E00056D100F0D1FB10BD302851D100F058FD90
:1011F00010BD44284CD100F023FD10BD772847D105
:10120000FEF7DAFF10BD4C2842D100F052FE10BDAF
:101210007C283DD10879032837D0022832D0012814
:101220003AD101F0DFFC10BD482831D100F00CFEAE
:1012300010BD7A282CD1FEF791FF10BD722827D15E
:1012400001F0B4FC10BD802822D101F097FC10BD44
:1012500034281DD100F059FD10BD3C2818D100F0F4
:1012600095FC10BD382813D100F08DFD10BD40282D
:101270000ED100F0FDFC10BD01F0A6FA10BD01F08A
:10128000E5FA10BD01F0FCFC10BD01F00FFE10BD31
:101290006D20000202F04AFC6B20000202F046FCC6
:1012A0003019002010B5832002010D4C002120468A
:1012B00002F064FB0B4803F057FA0B49794408220B
:1012C00002F020FC002802D0002000F00FF83F20A0
:1012D000C0433F30607000F039F8C020207010BD6E
:1012E00030190020007CD0C04C570000F0B583B00E
:1012F00002AD2870124C204603F036FA0021114A44
:1013000003F074FA01AE42203070204603F02CFA4C
:101310000930012731463A4603F068FA204603F0C7
:1013200023FA083029463A4603F060FA204603F0D3
:101330001BFA05497944082203F058FA03B0F0BDBE
:10134000007CD0C052020000D4560000F0B599B025
:10135000404815900020179018900127F807169024
:101360002C30149004A869460860212014A9052295
:101370000CAB03F0D1FB384803F0F6F9407A212892
:1013800028D00397422860D161208000334D2C186B
:1013900068460460232000012918029106270CAA40
:1013A000202638463346FEF791FF20462146FEF7B9
:1013B000EBFF512080002D186846056038460299E1
:1013C00022463346FEF782FF28462946FEF7DCFF19
:1013D000039F18E0204C204603F0C6F90146512037
:1013E00080001E4E30180A3120252A4602F0CFFA1E
:1013F000204603F0B9F901466120800030182A31F7
:101400002A4602F0C4FA59208000144E30185121A7
:10141000890074182146FFF711FA692080003018FE
:101420006121890075182946FFF708FA71208000AC
:10143000301804A922462B46FEF7D6FE3D20C000F8
:10144000315C3943315419B0F0BD6920000202F01B
:101450006DFBC04667280080007CD0C0301900209A
:1014600003494A8912184A810A891018088170476D
:101470003019002080B50146064800228281826032
:10148000002905D00E304B218A00002102F076FAA7
:1014900080BDC04630190020B0B504460A4D2889E9
:1014A0000119FF222E3291420AD26989421A691823
:1014B0000E31081902F06BFA288900192881B0BD95
:1014C0000120400402F032FB3019002070B50C46B8
:1014D00005460846FFF7E0FF054E708930180E30CC
:1014E0002946224602F053FA70890019708170BDB6
:1014F00030190020B0B50D4604460846FFF7CCFF72
:10150000202D0BD1084D688928180E302022214645
:1015100002F03DFA688920306881B0BD014802F0D0
:1015200005FBC046826800003019002010B5044653
:101530000420FFF7B1FF064841894218230CD373FA
:10154000230E9373230A13745474091D418110BD33
:101550003019002010B504460220FFF79DFF044813
:1015600041894218D473230A9373891C418110BDA9
:101570003019002010B504460120FFF78DFF034805
:10158000418942189473491C418110BD30190020D3
:10159000B0B50C460B4D69892A89521AA2420BDB61
:1015A000002805D069180E31224602F0F0F9698949
:1015B000081968812046B0BD67200002E1B2081812
:1015C00002F0B4FA3019002010B50E4C628923895C
:1015D0009B1A8B420DDB202911D1002805D0A118C0
:1015E0000E31202202F0D3F962892032628120205C
:1015F00010BD67200002C9B2081802F097FA02482D
:1016000002F094FA301900208268000010B5164CE0
:1016100061892289521A1F2A22DD61180E310022A7
:101620008B5C002B05D1521C202AF9D301D151210A
:1016300008E000228B5CFF2B0DD1521C202AF9D32D
:1016400009D1612189006118202202F0A0F9608986
:101650002030608102E02021FFF7B6FF202010BD7E
:10166000024802F063FAC0463019002020670000EB
:10167000B0B50B4841890289521A032A0DDD421880
:10168000537C147CD57B927B091D41811006290473
:10169000081821024018C018B0BD024802F046FAEE
:1016A000301900200467000080B506494A8908897E
:1016B000904204D98818807B521C4A8180BD024820
:1016C00002F034FA3019002001670000B0B504467A
:1016D000C0060FD4194D002068812A89FF2A29D21B
:1016E00029460E31164802F052F92989A0061CD469
:1016F000002001E01020002102F056FD0F4C0020D8
:10170000A060E0710E490878A0704878E070887891
:101710002071C87860710A79A27120460E30491D87
:1017200002F035F9A079208102E0202002F03CFD92
:101730000020B0BD034802F0F9F9C046301900207E
:101740006C210020846A000070B519254A26064CD9
:10175000204603F009F880190021142203F046F80E
:1017600014366D1EF4D170BD007CD0C0F0B587B0CA
:101770007E4C2079022800D1DEE0012800D0E0E094
:10178000FFF776FF0646FFF773FF821978494B1C77
:1017900000930492824200D2E3E08E4200D9E0E05E
:1017A00004980099884200D9DBE00021039601915A
:1017B0006120800020188900425C4B1CC35C1B0226
:1017C0009A188B1CC35C1B04D218C91C405C000611
:1017D00015180295284667490E4604F04DFD0099FC
:1017E00041436F1A05AD2F80C019314604F0CAFD80
:1017F0000E4669800298604904F03EFD3018039E51
:101800005C4904F0BFFDA980032001994843029080
:10181000002502E0680005A90F5AB9B28E422CD803
:101820000498884229D90298281863894B2292008B
:10183000D21AE7180E3733468E4209D23E78761C0C
:10184000921B002A00DA80E0BF195B1C8B42F5D3A3
:101850008B4200D080E03E78132E7DD8B2427BDDF3
:1018600014244443454802F07FFF00194A30791C94
:10187000324602F0BBFF3D4C039E6D1C022DC9D9C0
:101880000199491C082992D30120FFF7F3FD6379E0
:10189000002B56D000274A22384E1946039704974A
:1018A00009060399314F144610D00025304602F046
:1018B0005BFF0019415D7B791A4604984243BA18D0
:1018C000521991736D1C9D421946EFD32246143272
:1018D000049C641C182C2746E1D1D9B21820484337
:1018E0000024002916D00021C943204C0E34254A7B
:1018F0007A4423782546CCB25C40A3002C46D358CA
:10190000090A59406C1C401EF3D1C843182104F049
:1019100039FD0C46194D284602F026FF1849461895
:1019200014277C43284602F01FFF01194A31304634
:101930003A4602F05BFF04E00020FFF79BFDFFF753
:1019400003FF0920000307B0F0BDFFF7FDFED5201F
:10195000C001401C02F0EAF8D520C001801C02F052
:10196000E5F8D520C00102F0E1F8C04630190020AA
:10197000590600005A060000A4572800007CD0C079
:101980002A02000020510000F0B599B02E480089CD
:10199000DF2855D101AD202428462146FFF7F8FD68
:1019A00009AE30462146FFF7F3FD11AF3846294610
:1019B000FEF744FF30463946224602F0A3F80028DD
:1019C0003AD1224802F0D0FE0A3001AD2024294647
:1019D000224602F00BFF28462146FFF7D9FD09AE4B
:1019E00030462146FFF7D4FD11AF38462946FEF7B1
:1019F00025FF30463946224602F084F800281BD1E4
:101A0000124C204602F0B0FE2A3001A9202202F03A
:101A1000EDFE6D4621202870204602F0A5FE09301B
:101A200001242946224602F0E1FE2046FFF722FD6E
:101A30000920000319B0F0BDD520C00102F076F8EE
:101A40006720000202F072F830190020007CD0C03C
:101A5000F0B581B00120FFF70DFD164F387902284F
:101A60001ED0012821D1592080003C182025204675
:101A70002946FFF72BFD692080003E183046294695
:101A8000FFF724FD788938180E30002321463246AE
:101A900000F01CFF5F20FFF7E3FC0920000302E0D9
:101AA00001F028FC002001B0F0BD6B20000202F024
:101AB0003DF8C0463019002010B598B008A8FFF7CF
:101AC000A5FD10A82021FFF763FD16480179022922
:101AD0000AD0012906D0002920D1684608A9FEF7BE
:101AE000B1FF08E0592100E069218900411810A8E0
:101AF000202201F04CFF684610A9202202F002F8D3
:101B000004460120FFF7B6FC0020001B444120469C
:101B1000FFF70CFD0920000318B010BD6B20000278
:101B200002F004F83019002070B59AB00020FFF7D9
:101B3000A1FC51208000144E311809AC202520460C
:101B40002A4601F024FF6120800031182046203011
:101B50002A4601F01CFF40208C21215401A869462F
:101B60000860232000013118062041232246FEF799
:101B7000ADFB312000013018C821FFF7A7FC092078
:101B800000031AB070BDC04630190020F0B599B0FE
:101B900011AD202428462146FFF716FD09AE304638
:101BA0002146FFF711FD0020FFF764FC01AF384626
:101BB00029463246FEF7CCFE38462146FFF79AFC0E
:101BC0000920000319B0F0BDF0B599B011AD202483
:101BD00028462146FFF7F8FC09AE30462146FFF7BC
:101BE000F3FC0020FFF746FC01AF38462946324699
:101BF000FFF7D4F838462146FFF77CFC09200003A4
:101C000019B0F0BDF0B599B011AD20242846214699
:101C1000FFF7BEFC09AE30462146FFF7D5FC002099
:101C2000FFF728FC01AF384629463246FEF71DFF74
:101C300038462146FFF74AFC0920000319B0F0BDE1
:101C400070B590B008AD202428462146FFF7BCFCB3
:101C50000020FFF70FFC6E4630462946FEF7EEFDEA
:101C600030462146FFF732FC0920000310B070BD5A
:101C700070B590B00020FFF7FDFB6C4608AD204624
:101C80002946FEF7CBFD202620463146FFF71EFCF5
:101C900028463146FFF72EFC0920000310B070BD26
:101CA00070B590B008AD202428462146FFF78CFC83
:101CB0000020FFF7DFFB6E4630462946FEF7BEFDEB
:101CC00030462146FFF702FC0920000310B070BD2A
:101CD000F0B599B011AD202428462146FFF758FCF5
:101CE00009AE3046FFF792FC0020FFF7C3FB01AFBF
:101CF000384629463246FEF7CFFD38462146FFF7E3
:101D0000F9FB0920000319B0F0BDF0B591B009ADA1
:101D1000202428462146FFF757FCFFF7A9FC06467A
:101D20000020FFF7A7FB01AF384629463246FEF7F1
:101D3000C3FD38462146FFF7DDFB0920000311B043
:101D4000F0BDF0B599B011AD202428462146FFF72B
:101D50003BFCFFF78DFC009009AF38462146FFF7AA
:101D600017FC0020FFF786FB01AE30462946009A9B
:101D70003B46FEF71FFE30462146FFF7A7FB092032
:101D8000000319B0F0BDF0B599B011AD202428467C
:101D90002146FFF719FCFFF76BFC009009AF3846AE
:101DA000FFF734FC0020FFF765FB01AE3046294603
:101DB000009A3B46FEF7BCFD30462146FFF79AFBF2
:101DC0000920000319B0F0BDF0B599B011AD202481
:101DD00028462146FFF7DCFB09AE30462146FFF7D7
:101DE000F3FB0020FFF746FB01AF38462946324699
:101DF000FEF72CFE38462146FFF768FB092000035A
:101E000019B0F0BDF0B599B011AD20242846214697
:101E1000FFF7BEFB09AE30462146FFF7D5FBFFF7C3
:101E200027FC00900020FFF725FB01AF384629462C
:101E30003246009BFEF74AFE38462146FFF746FB36
:101E40000920000319B0F0BD70B592B010AC0821A4
:101E50002046FFF79DFB0020FFF70CFB08AD6E4608
:101E6000284631462246FEF7DBFE2024284621463E
:101E7000FFF72CFB30462146FFF728FB0920000323
:101E800012B070BDB0B58AB008AC08212046FFF78B
:101E90007FFB0120FFF7EEFA6D4628462146FEF74C
:101EA0006DFE20212846FFF711FB092000030AB030
:101EB000B0BD70B592B00AAC2046FFF7A7FB08ADE5
:101EC00008212846FFF764FB0020FFF7D3FA6E468F
:101ED000304621462A46FEF769FE20213046FFF7AC
:101EE00009FB0920000312B070BD0000F0B5ABB0D3
:101EF000FFF7BEFB23A8FFF789FB1BA82024214680
:101F0000FFF746FB13A82146FFF742FB0BA821462B
:101F1000FFF73EFBFFF7ACFB0746FFF7C5FB0AA93F
:101F20000870FFF7C1FB0190FFF7BEFB06460120DA
:101F3000FFF7A0FA7B208000364D2958022966D28F
:101F4000491C295005208401285901281AD1A87854
:101F5000022817D11720800100972F1813A92546B2
:101F6000202438462246FEF799F90BA93846224626
:101F70002C46284DFEF792F90AA901223846009F07
:101F8000FEF78CF9300610D00198000605D002A8A3
:101F90000BA923AAFEF769FD03E002A823A9FEF717
:101FA0004DFC02A82021FFF791FA0AA8007800282A
:101FB00002D002A81BA901E002A813A923AAFEF7D8
:101FC0006BFC23A802A93A46FEF776FC28590128A3
:101FD00009D1A878022806D117208001281823A942
:101FE0002022FEF75BF923AC202520462946FFF787
:101FF00081FA02A90BAB20463A46FEF7DBFC2046ED
:102000002946FFF763FA092000032BB0F0BD024810
:1020100001F08CFD30190020156900008CB00027FC
:102020003C460BA807806E46304604F089FB30859D
:1020300086B2002E16D00546684600210185012093
:10204000FFF718FA0F2004032C4000F037FD03209F
:102050004003844203D00920000384420DD10BA821
:10206000058010E0684601F0AAFB2046FFF72EFB32
:10207000FFF718F80BA9088005E03046FFF756FA7D
:102080000BA80D49018001F055FD6946884203D136
:1020900001F052FD01F093FB0BA8008810240028EA
:1020A00004D00BA80088FFF755FA00246846008D7D
:1020B0000028B6D001F03AFD426F0000F0B585B0BF
:1020C00002F042FDEA4F3978EA4D0C29049051DCC8
:1020D000052900D199E00C2900D022E1E64E002428
:1020E000F461012030763046183002F059FDF0617D
:1020F00002F038FBF069E14DA84200D133E200283C
:1021000000D130E2FC49884200D0B9E101F064FE20
:1021100001F068FEB4603068002800D123E2F06965
:10212000A84200D11FE2002800D11CE20020716803
:10213000884200D317E202F08DFD002800D012E2A1
:10214000B068F1683824604332681018002902D062
:102150008847002807D0012803D1B068444330687D
:10216000001901F07FF9B068401CB06031680029A7
:10217000DDD1F8E10D2900D193E00E2900D0D0E0A7
:10218000DE4E0024F461012030763046183002F033
:1021900007FDF06102F0E6FAF769AF4200D004E112
:1021A00001F01AFE01F01EFEB4603068002800D174
:1021B000D9E1F069D249884200D1D4E1002800D1A8
:1021C000D1E100207168884200D3CCE102F042FDE9
:1021D000002800D0C7E1B068F16838246043326855
:1021E0001018002902D08847002807D0012803D101
:1021F000B06844433068001901F034F9B068401CFD
:10220000B06031680029DDD1ADE1BC4E0024F4613D
:10221000012030763046183002F0C2FCF06102F046
:10222000A1FAF069B64DA84200D19CE1002800D186
:1022300099E1B149884200D064E101F0CDFD01F09F
:10224000D1FDB4603068002800D18CE1F069A8426B
:1022500000D188E1002800D185E100207168884222
:1022600000D380E102F0F6FC002800D07BE1B068EA
:10227000F1683824604332681018002902D088477A
:10228000002807D0012803D1B06844433068001902
:1022900001F0E8F8B068401CB06031680029DDD179
:1022A00061E1F04E0024F4610120307630461830B0
:1022B00002F076FCF06102F055FAF069EA4DA842AE
:1022C00000D150E1E649884200D160E1002800D108
:1022D00049E13068002800D13FE1B0687168884268
:1022E00000D33AE102F0B6FC002800D035E1B06836
:1022F000F1683824604332681018002902D08847FA
:10230000002807D0012803D1B06844433068001981
:1023100001F0A8F8B068401CB06031680029DDD138
:102320001BE1D04E0024F461012030763046183095
:1023300002F036FCF06102F015FAF069A8426FD1A4
:1023400001F04AFD01F04EFDB4603068002800D174
:1023500009E1F069C449884200D104E1002800D1B4
:1023600001E100207168884200D3FCE002F072FCB9
:10237000002800D0F7E0B068F16838246043326884
:102380001018002902D08847002807D0012803D15F
:10239000B06844433068001901F064F8B068401C2C
:1023A000B06031680029DDD1DDE07069002808D017
:1023B00064216428024600D30A46801A706100D165
:1023C00014E1A948874200D1CDE0002F00D1CAE036
:1023D0003068002800D1C0E0B0687168884200D33E
:1023E000BBE002F037FC002800D0B6E0B068F1682E
:1023F0003824604332681018002902D0884700282A
:1024000007D0012803D1B06844433068001901F0B7
:1024100029F8B068401CB06031680029DDD19CE02B
:102420003068002800D198E0B0687168884200D315
:1024300093E002F00FFC002800D08EE0B068F16855
:102440003824604332681018002902D088470028D9
:1024500007D0012803D1B06844433068001901F067
:1024600001F8B068401CB06031680029DDD174E02B
:1024700000180020555010B080180020445010B0B3
:10248000B088039030680290FB79BC797A793D7905
:10249000FF78F1686846076041602802801882B2C0
:1024A0002002C01883B20298039901F013FD30682E
:1024B000002852D0B068716888424ED202F0CAFB40
:1024C00000284AD1B068F168382460433268101897
:1024D000002902D08847002807D0012803D1B0681E
:1024E00044433068001900F0BDFFB068401CB06084
:1024F00031680029DFD130E0555010B0801800203D
:10250000445010B03069002803D0F978490801F030
:10251000EFFD3068002820D0B068716888421CD276
:1025200002F098FB002818D1B068F16838246043A5
:1025300032681018002902D08847002807D00128E7
:1025400003D1B06844433068001900F08BFFB068D5
:10255000401CB06031680029DFD17068B1688142E9
:1025600001D302F077FB02F075FB002801D101F0E6
:10257000E9FA3B4C443C02F0E7FA0499814203D06B
:10258000A04201D1FEF7E2FE012005B0F0BD01F04E
:1025900023FC01F027FCB46030680028E3D0F06928
:1025A000A842E0D00028DED0002071688842DAD24C
:1025B00002F050FB0028D6D1B068F168382460439F
:1025C00032681018002902D08847002807D0012857
:1025D00003D1B06844433068001900F043FFB0688D
:1025E000401CB06031680029DFD1BCE71E4DAF420E
:1025F000B9D0002FB7D001F0EFFB01F0F3FBB460CE
:102600003068002800D1DCE6F069A84200D1D8E6A5
:10261000002800D1D5E600207168884200D3D0E6BA
:1026200002F018FB002800D0CBE6B068F16838242F
:10263000604332681018002902D08847002807D06C
:10264000012803D1B06844433068001900F00AFF44
:10265000B068401CB06031680029DDD1B1E6C046E9
:10266000555010B080180020445010B0B0B5054649
:10267000072028400024012814D0022814D1002962
:1026800009D00B4802F0D0FA68B200280ADA02F04A
:1026900099F8002406E0FF2152310548002202F09B
:1026A000EFFA04462046B0BD022001F03FFAC046D2
:1026B0006C21002010B58CB001AC204604F040F82D
:1026C0002085000406D101A801F079F80020C0435C
:1026D00002F050FA01F02EFA01A9884203D101F06C
:1026E0002BFA01F06CF801A8008D002801D10CB084
:1026F00010BD01F01BFA000070B5A0B0314C20896C
:1027000002280ED318A82021FEF742FF4F20800098
:10271000205C40061ED410A820242146FEF754FF5A
:102720001DE00120FEF7A6FE08AD20242846214624
:10273000FDF7ECFD28462946FDF726FE28462146F2
:10274000FEF7D8FE6E4630462946FEF777F830464B
:10275000214630E010A820242146FEF719FF012071
:10276000FEF788FE08AD28462146FDF7CFFD284636
:102770002946FDF709FE28462146FEF7BBFE6E46B8
:1027800030462946FEF75AF830462146FEF79EFEAF
:102790006C4618AD08AA20462946FEF766F92026A1
:1027A00020463146FEF792FE10AA20462946FEF743
:1027B0005CF920463146FEF789FE0920000320B06F
:1027C00070BDC0463019002070B590B01E4E7079B3
:1027D00001280CD17B20C0003018FDF759FD0B20DB
:1027E000C001311808A8202201F0D1F803E008A8A0
:1027F0002021FEF7CDFE0120FEF73CFE7B20C0002D
:10280000351808A920222846FDF748FD4F208000F2
:10281000305C000614D46C4628462146FDF74AFD7C
:1028200020462146FDF7B0FD202520462946FEF72B
:102830004DFE2D204001301821462A4601F0A7F810
:102840000920000310B070BD30190020F0B5A1B010
:10285000052086011C4FB85901280BD002282ED123
:1028600019A820242146FEF793FE11A82146FEF761
:102870008FFE08E019A820242146FEF7A5FE11A826
:102880002146FEF7A1FE0120FEF7F4FD2D204001B8
:10289000391809AC19AA2046FEF7B2FA01AD11A900
:1028A00028462246FEF77AFA20212846FEF70EFE39
:1028B000B859FEF73BFE0920000321B0F0BDD5203A
:1028C000C00101F033F9C04630190020F0B599B0CD
:1028D0001C46049205910690324801F045FF007AAB
:1028E000002807D0022805D001280AD1002C07D0E3
:1028F000304906E0002C01D02C4902E02A4900E0D2
:102900002B4907AE3046FDF705FD05463418202754
:10291000204604993A4601F03AF8204620300599BD
:102920003A4601F034F80B200390C00122490F18F9
:10293000684607602320000109182B464033062013
:102940003246FDF7C3FC403404222046394601F0EC
:102950001EF8443507212846029108400490E808F3
:1029600005900CD007AC059E069F082120463A46EC
:1029700000F024F80834761E0B37002EF5D1049BA6
:10298000002B0BD00298854307A84019039A05999C
:102990004A4306998A18194600F010F8002019B029
:1029A000F0BDC046007CD0C067280000682C000045
:1029B0001D5B00001C64000030190020F0B585B0DC
:1029C00009235C1A00263346042C06DC022C0BDC9F
:1029D000012C13D0022C16D069E0062C09DC052C42
:1029E00026D0062C2BD062E0032C13D0042C18D058
:1029F0005DE0072C2AD0082C2FD058E0441C00782A
:102A000003020026204604781C43230E3502EE18EC
:102A10002302401C04781C43230E3502EE182302C7
:102A2000401C04781C43230E3502EE182302401C80
:102A300004781C43230E3502EE182302401C047850
:102A40001C43230E3502EE182302401C04781C435D
:102A5000230E3502EE182302401C05781D4328463C
:102A60003043002823D088001249794408581018B0
:102A7000471E1148784401903A24314604960026B6
:102A800028462246334603F08FFC039002912246EB
:102A9000334603F0A9FC281A0199085C38707F1EA0
:102AA0003920401B04988641039D029EE4D305B063
:102AB000F0BDC046E24300009C43000070B52120F9
:102AC0000001134E30180024202521462A4600F02C
:102AD00055FF1F200001301821462A4600F04EFF06
:102AE0007B25E8003018FDF7D3FB0A483018FDF7C6
:102AF00022FC172080013018FDF71DFCA80034507F
:102B00003D20C000315CFD220A40325470BDC046F9
:102B1000301900204C060000F0B581B0FEF7A8FD8A
:102B20000120FEF7A7FCFFF7C9FF21200001124F8B
:102B30003C18202520462946FDF7E8FB2046214683
:102B4000FDF722FC1F2000013E1830462146FDF70C
:102B500075FE30462946FEF7B9FC20462946FEF7A9
:102B6000C9FC3D20C000395C02220A433A540920C6
:102B7000000301B0F0BDC0463019002080B501202F
:102B8000FEF778FCFFF79AFF3D20C00003490A5C7E
:102B9000FD2313400B540920000380BD3019002091
:102BA00080B5FFF78BFF002080BD000070B50520C9
:102BB00085010B4E02207051FEF776FD0446002081
:102BC000FEF758FC601E022806D274512046FEF71C
:102BD000ADFC0920000370BDD520C00100F0A6FFA8
:102BE0003019002070B505208601224DA859012812
:102BF00016D16879012813D11F48291817208001A0
:102C00002C182046FDF756FB2046FDF794FB1B4889
:102C10002818FDF790FB7B20C0002818FDF738FB33
:102C20007B20C000281869892A89521A69180E3138
:102C3000FDF734FBA859012815D16879012812D174
:102C4000FEF732FDF520C0002918688928180E30DB
:102C50000F22FEF7B9F90120FEF70CFC00242046F4
:102C600000F00EFA04E00120FEF704FC0920040342
:102C7000204670BD301900202C0600004C060000D4
:102C8000F0B5AFB0FEF710FD0290844CA1780020A3
:102C9000022901D1FEF708FD2EA9087066890024DB
:102CA000202520462946FEF773FC7C4847892046AC
:102CB0002946FEF76DFC26A82946FEF785FC1EA8CE
:102CC0002946FEF765FC0EA82946FEF761FC16A80A
:102CD0002946FEF75DFC03942046704CFEF7CAFBC4
:102CE00020460E3081190491C5194F2080000590AF
:102CF000205803263040022805D17B20C000201830
:102D000016A908220FE07B20C0002C4663490D184D
:102D10000EA9202728463A46FDF7C0FA16A92846EC
:102D200025465E4C3A46FDF7B9FA05208001205849
:102D300009210F03012800D0A6E0592080002118A6
:102D40002022049800F0DEFE002808D169208000CF
:102D500021182022284600F0D5FE00280DD02EA8EC
:102D6000007800280CD1E920C00020180299CBB2CD
:102D700004992A46FFF7AAFD02E02EA8012101705E
:102D8000A07802281AD117208001019525180297F2
:102D90002027284604993A46FDF780FA28460199EB
:102DA0003A46FDF77BFA2EA901222846FDF776FA6E
:102DB00026A928463A46029FFDF770FA059823583F
:102DC000334016AD0EAE26AA28463146FDF796F9D9
:102DD00006A83146FDF732FD2021284601F0F6FD18
:102DE000002805D026A806A9202200F0D0FD09E081
:102DF00026AD16A92846FDF725FF06A928462A462E
:102E0000FDF7EBFD1EA826A9202200F07BFE00287E
:102E10003DD1244826181EA920223046FDF73EFA4F
:102E20000598205C00061AD4A07802280ED117203D
:102E3000800120180EAD2946FDF73CFA1A482118EA
:102E40002022284600F05EFE002823D1D720C000B3
:102E500021183046FDF72EFA3046FDF76CFA16A819
:102E6000FEF773F82EAA03460B43002B0CD0127802
:102E7000002A09D1F522D200A2180F23FDF7F2FF94
:102E8000039F384600F028FA38462FB0F0BD0448BA
:102E900000F04CFE0248C01C00F048FE3019002033
:102EA000116900004C0600002C060000F0B599B036
:102EB0004F208000324E305C000643D40520800154
:102EC000305801280ED12F48301801AC2146FDF7AB
:102ED000F1F9D720C00031182022204600F012FE60
:102EE000002849D17B20C000341801A90091204658
:102EF000FDF7E0F911AD202628463146FEF748FBE4
:102F000009AF38463146FEF743FB0120FEF7B2FA1F
:102F10002046FDF7BDF9204629463246FDF7BEF9A9
:102F2000204600993246FDF7B9F920463946324627
:102F3000FDF7B4F90B20C001114909182046FDF72F
:102F4000B9F915E001AC202520462946FEF720FB03
:102F50000120FEF78FFA7B20C000301821462A4658
:102F6000FDF79CF90748301821462A46FDF796F9E7
:102F70000920000319B0F0BD034800F0D7FDC0469A
:102F8000301900204C06000013690000F0B59DB018
:102F900015AF202101913846FEF7FAFA0DAE304602
:102FA000FEF734FB02A80821FEF7F2FA00242046BF
:102FB000FEF760FA04AD284639463246FDF76CFC50
:102FC0008D200199685468460660232000010C4951
:102FD0000918062021232A46FDF778F902A8015D89
:102FE0000DAA125D4A400255641C082CF6D102A8B5
:102FF0000821FEF76BFA092000031DB0F0BDC046A2
:103000003019002080B5014609200003094A914289
:1030100002D0FFF7C5FD0848FEF79CFA2020FEF716
:1030200055FB002005497944054A7A4401F00CFB20
:1030300080BDC046CEAC000082690000464700005B
:10304000E7060000074A7A44904207D148782228D0
:1030500004D1F520C000024A1018C8610846704724
:1030600030190020D23F000080B503497944034A5B
:103070007A4401F0E9FA80BD00470000A106000093
:1030800080B5002003497944034A7A4401F0DCFA10
:1030900080BDC046923F0000B7FFFFFF80B5012012
:1030A00002497944002201F0CFFA80BDD2440000E9
:1030B00080B5FEF749FB002003497944034A7A446E
:1030C00001F0C2FA80BDC046B246000053060000BF
:1030D000B0B50C46816818291AD8054660782128B1
:1030E00009D10C4801F040FBA96814224A4380181A
:1030F0004A30E061607822280AD1172908D80548AB
:1031000001F032FBA96814224A4380185E30E06166
:103110002046B0BD007CD0C080B500200349794472
:10312000034A7A4401F090FA80BDC0466A3F00002D
:10313000ABFFFFFF80B5014609200003094A914219
:1031400002D0FFF72DFD0848FEF704FA2020FEF715
:10315000BDFA002005497944054A7A4401F074FA21
:1031600080BDC046CEAC000082690000164600005B
:10317000B7050000F0B581B00C4656497944884245
:103180002DD00A461C32904231D00A463832904245
:1031900042D00A465432904255D00A46703290428C
:1031A00068D08C31884200D081E0DB20C600414FDE
:1031B000BD1900217022284600F0E0FB607821282C
:1031C00006D13D4839180B22284600F0E0FB607814
:1031D00022286AD13D2040013918072262E0607838
:1031E000222864D1F520C000324908185EE06078DA
:1031F00022285CD1DB20C0002E4E35180021702221
:10320000284600F0BBFBE920C00031180B222846FD
:1032100000F0BDFBE5614AE0DB20C600254FBD198B
:1032200000217022284600F0A9FB6078212806D1F1
:10323000264839180B22284600F0A9FB607822287E
:1032400033D123482CE0DB20C6001A4FBD190021E2
:103250007022284600F092FB6078212806D1194898
:1032600039180B22284600F092FB607822281CD1E6
:10327000154815E0DB20C6000E4FBD190021702255
:10328000284600F07BFB6078212806D10B483918CE
:103290000B22284600F07BFB6078222805D10848E5
:1032A00039180B22284600F072FBB819E06120465D
:1032B00001B0F0BD30190020950700007F07000025
:1032C0008A07000069070000740700005307000028
:1032D0005E070000B040000080B50020034979443B
:1032E000034A7A4401F0B0F980BDC0464E3F000069
:1032F0008FFEFFFFB0B5234C05202449794421609F
:1033000060602348784423497944E16020610320C8
:1033100020760025E5612046183001F041FCE0618F
:1033200001F020FA00F058FD00F05CFDA560206877
:10333000002826D0E0691449884222D0002820D0F5
:103340000020616888421CD201F084FC002818D15A
:10335000A068E1683825684322681018002902D067
:103360008847002807D0012803D1A068454320687A
:10337000401900F07BFEA068401CA0602168002975
:10338000DFD1B0BD80180020445010B02C400000A8
:1033900091000000F9000000B0B588B00446002597
:1033A0002846FEF767F868462022294600F0E6FA2C
:1033B0000F48844204D00F48844216D1684603E087
:1033C000512080000C4908182021FEF77FF80920C1
:1033D0000003FEF7BFF82020FEF778F90020074928
:1033E0007944074A7A4401F02FF9002008B0B0BDB3
:1033F0000200008001000080301900208C43000092
:103400002D03000010B5407802280BD0012814D1FC
:10341000DB20C0000F4908180F497944072203F048
:10342000FFF814E0DB20C0000A4908180B49794472
:103430000CC90CC00978017009E0DB20C000054907
:103440000818074979441CC91CC00988018001205B
:1034500010BDC04630190020C93A000012400000DB
:103460000840000080B500F001FE80BD80B5C0B20C
:10347000FDF73CFFFDF716FF002003497944034A9E
:103480007A4401F0E1F880BDF042000091020000B2
:10349000F0B581B00C460646DB20C000204F3D1839
:1034A00000217022284600F069FA2048784401463D
:1034B00038318E4212D0014654318E421AD07030CB
:1034C00086422AD16078202827D1164801F04CF98D
:1034D000007A002821D11849794416E06078202824
:1034E0001BD1104801F040F9007A012815D110498C
:1034F00079440AE0607820280FD10A4801F034F9B5
:10350000007A022809D10B4979440E22284600F09E
:103510003EFA05482B213954E561204601B0F0BD43
:1035200030190020007CD0C0E5060000B03F00004C
:10353000483A00003F3A00007E3A000080B5034957
:103540007944034A7A4401F07FF880BD1C3F0000B3
:1035500049FFFFFF10B582B000240194084801F034
:1035600003F901A9042201F041F9FDF79BFE054989
:103570007944054A7A44204601F066F802B010BD4D
:10358000007CD0C0FC4100009D010000F0B581B07E
:103590000C4650497944884228D00A461C32904251
:1035A00039D00A46383290424CD00A4654329042C2
:1035B0005FD07031884279D1DB20C6003D4FBD1904
:1035C00000217022284600F0D9F96078212806D120
:1035D000394839180B22284600F0D9F9607822289A
:1035E00062D13D204001391807225AE06078222834
:1035F0005CD1DB20C0002F4E3518002170222846F8
:1036000000F0BCF9E920C00031180B22284600F078
:10361000BEF9E5614AE0DB20C600264FBD19002156
:103620007022284600F0AAF96078212806D12748A0
:1036300039180B22284600F0AAF96078222833D1E5
:1036400023482CE0DB20C6001A4FBD190021702250
:10365000284600F093F96078212806D119483918D6
:103660000B22284600F093F9607822281CD11648D6
:1036700015E0DB20C6000F4FBD190021702228463F
:1036800000F07CF96078212806D10C4839180B220B
:10369000284600F07CF96078222805D108483918BE
:1036A0000B22284600F073F9B819E061204601B0FA
:1036B000F0BDC04630190020950700007F070000CC
:1036C0008A07000069070000740700005307000024
:1036D0005E0700001441000010B50446E920C00058
:1036E000094A101859218900511869239B00D218E2
:1036F0000023FFF7EBF805497944054A7A44204650
:1037000000F0A2FF10BDC04630190020B03F0000FD
:103710008DFEFFFFF0B581B00C461C49794488420C
:1037200026D16078222823D1DB20C000124F3D181B
:10373000002670222846314600F020F959208000EA
:103740003918692080003A1828463346FFF7BEF83A
:103750000A4838182E21022200F010F908483818BB
:1037600008497918052200F012F907483E54E5612E
:10377000204601B0F0BDC04630190020DD06000033
:10378000DF06000032070000E406000050400000A1
:1037900080B5002006497944064A7A4400F054FF77
:1037A0007D20C0000149486180BDC04680180020CE
:1037B000D63F000077FFFFFF00208146704781461B
:1037C00070470000F0B581B00646654FB94238D069
:1037D0000D461446009640263846314602F01AFF40
:1037E000402C224600D33446BD4217D2002C009E06
:1037F00027D04020C14308464030831A8B4200D86E
:103800000B463F31CC1A2919554D2C195B1C0D78EC
:103810002570091824185B1CF9D112E0002C009EB9
:103820000FD04020C04301464031891A814200D860
:103830000146481C29783970401C7F1C6D1C0028EB
:10384000F8D1474DA87801280ADC002830D001289B
:103850007AD1E81C042100F0DFFF4021284632E045
:1038600002282ED005286FD12879E9780902081896
:103870003C4E3168002788426CD1501F31680029C6
:1038800024D081B2384A13688B4201D2106881B2C9
:10389000364A12686B1D9A423FD90023040447D070
:1038A000413A40326B181B795354491EFAD13EE01D
:1038B0000027AF716F712F71EF7040212846B0471C
:1038C00048E027484021B047002743E0A8796979BC
:1038D000090209182648016001684908A82939D851
:1038E00001682148016069782B781B025918214B27
:1038F00019601E49204B0B60D41FA2B2016891428F
:1039000001D20468A2B2E91D8B42002320040FD02B
:10391000194802F085FE23460AE00023040407D07C
:103920006B1D1C781470521C5B1C491EF9D1034698
:1039300098B20D490A68121A0A600C490A681018F0
:1039400008603068401C3060074801680120022789
:10395000002903D1034800210160384601B0F0BDC1
:10396000702300206021002068210020C022002058
:1039700064210020C42200206C21002080B5002A90
:1039800004D00B4611461A4602F04EFE80BDB0B57B
:10399000884208D9002A0FD0491E401E8B5C8354F0
:1039A000521EFBD108E0002A06D000239CB20D5D18
:1039B00005555B1C521EF9D1B0BD00000148002125
:1039C0000160704760210020F0B581B03A4F39683E
:1039D00000292BD00090394C661D392530462946E8
:1039E00002F018FE0520A07035480168090A217010
:1039F0000068607033480168090AE170016821714C
:103A000002683968002A19D03B253B2900D83D6857
:103A10002D480168B14228D2002D3DD04A1E2B46C8
:103A2000D05CE61830715B1EFAD135E025480021E4
:103A3000016025480160254801703BE0392900D824
:103A40003D683968090A61713968A1711E490968C0
:103A5000E21D914215D2002D1ED04A1E2B46D65C87
:103A6000E01886715B1EFAD116E0002D14D00022FA
:103A70002B4690B20E5C20184671521C5B1EF8D18A
:103A80000AE0002D08D000222B4690B20E5C2018D0
:103A9000C671521C5B1EF8D14919009A094B38684F
:103AA000401B3860084801601868401C18600348D3
:103AB0004021904701B0F0BD682100207023002014
:103AC000C422002060210020C0220020DC2200202F
:103AD00080B500290BD0064A00231360054A116007
:103AE000054A064B1360064A1160FFF76DFF80BD63
:103AF0006021002068210020C02200206C210020CD
:103B00006421002070B5401E491E541E0023002A67
:103B10000AD08D5C865CAE422246F6D00020C043BF
:103B20000123AE4200D80346D8B270BD01464846D4
:103B300002F012FE4846704700204946002900D096
:103B40004869704780B501F085F8002800D080BD35
:103B50000648002141706022027002228270C1700A
:103B60000171052101F060F880BDC04600180020F9
:103B700010B51948C078032807DC01280DD00228A9
:103B800026D1164801F007FF10BD04281DD00828D3
:103B90001ED1124801F0FDFE10BD104C012120463F
:103BA00001F0F2FE204601F0D0FE0D48007800281A
:103BB0000FD10C48002406222146FFF7DFFE0A48F9
:103BC0000C222146FFF7DAFE10BD044801F0DFFEAB
:103BD00010BD1020FFF7AAFF00180020B823002016
:103BE000C8220020C9220020D02200207F210140CD
:103BF0000148405C7047C046C922002010B51448F7
:103C00000179042916D0022906D001291ED1811D6F
:103C1000114801F0A0FD10BDC2787F211140052997
:103C200014D84A000D4B00249C52821D0A4801F012
:103C300018FE10BDC2787F211140052906D84279AF
:103C4000044B5A54821D044801F0B3FD10BDC04618
:103C500000180020C9220020B8230020D022002014
:103C600070B5FF2A1DD815460E4604460D48502152
:103C70000170202101714271D11C81708022224388
:103C8000C270090A4170062100F0CEFF3046294675
:103C900000F0CAFF7F20204040007D210901024A38
:103CA000115270BD00180020D022002080B50A46B5
:103CB000014682201423FFF7D3FF80BD80B50E4854
:103CC0000178002900D080BD0C4906220A700A2123
:103CD00001700B488178427812025118FF2252324B
:103CE000914200D31146074A11801288C11C064830
:103CF000FFF74DFE80BDC046DC220020C822002018
:103D000000180020DE2200206C21002010B51F4882
:103D1000817842781202511800780F280ADC0E28A8
:103D200010D00F2820D10020012924D1FFF720FF37
:103D3000012010BD10281BD0162815D1FFF7BEFF9B
:103D4000012010BD0A211248425A002A08D06423DB
:103D5000642A144600D31C46121B425212040FD090
:103D60008A1E00291146EFD10220FEF7A7F910BDE7
:103D70000020032900D210BDFFF740FF012010BD35
:103D80000448002101701020FFF7D0FE0018002029
:103D9000D0220020DC22002010B5092000F0FCFC1D
:103DA0000748002404700748048007480470FFF7A0
:103DB00005FE06480460064804600648046010BD1D
:103DC000DC220020DE220020C8220020E022002089
:103DD000E4220020E8220020014800210160704711
:103DE000E022002002480021016002480160704783
:103DF000E4220020E8220020B0B50D460446006B06
:103E000000280BD000F0B0FC01462046884700F0A7
:103E1000ABFC00280FD0012800D00446002D06D0AE
:103E20002046A847002806D0012800D00446204696
:103E3000FFF718FB0120B0BDB0B58EB00D460446AB
:103E4000406B00280BD000F08FFC014620468847CD
:103E500000F08AFC00281AD0012800D00446002D6A
:103E600007D02046A8476C46002810D0012800D073
:103E700004466D46382228462146FFF788FD606AD1
:103E8000A16A049005912846FFF7ECFA01200EB0D4
:103E9000B0BDB0B50D460446C06A00280BD000F096
:103EA00063FC01462046884700F05EFC00280FD0E6
:103EB000012800D00446002D06D02046A84700283F
:103EC00006D0012800D004462046FFF7CBFA012097
:103ED000B0BD0000F0B587B00293039205910029B0
:103EE00076D004900D9801900C98009000253C4BE2
:103EF00006952F461E4600F0ADFE002855D138200D
:103F00006843049C2518334632680121954200D04D
:103F1000069906912056002841DA2020285C0221CB
:103F2000695E0A1A039CA24239DC4118EA888918A2
:103F3000039A914233DD04216C5E221A02998A426F
:103F40002DDC2018298940180299884227DD18683D
:103F5000854210D0186800280DD00198002805D09F
:103F60002846019988473346002818D018680199D7
:103F7000FFF742FF08E00098012809D002280ED17F
:103F800028460199FFF785FF3346002807D021E036
:103F900028460199FFF750FF334600281DD17F1CAA
:103FA000FDB205988542A5D300E033460698000689
:103FB0000ED0186800280BD000F04CFE002807D166
:103FC00030680199FFF718FF002801D00020306009
:103FD00007B0F0BD00201860FAE71D60F8E7C046A2
:103FE000E0220020F0B589B00C46014602AD1C224B
:103FF00028460192FFF7CBFC06CC2068E9802A8195
:10400000194F65233B7089B292B24A43424353072A
:10401000D1084A1C083C002B00D10A460092042615
:104020008640B0181D30B870000A787003213846F9
:1040300000F0FAFD2846019900F0F6FDA0683870FE
:104040000121384600F0F0FDE06800F08DFBB1B2D0
:1040500000F0EAFD009885B2206900F085FB294652
:1040600000F0E2FD09B0F0BD0018002070B5044674
:1040700000787F26064000F0EDFD002830D1002EAC
:104080002ED0E06900281DD000F06EFB0546052EFD
:1040900002D1A07E002824D0284602F06BFB064601
:1040A00012486521017031461C318170090A417046
:1040B000032100F0B9FD1C21204600F0B5FDB1B28E
:1040C00028460BE0094800214170652101701C253C
:1040D0008570032100F0A8FD2046294600F0A4FDCC
:1040E00070BD20462946FFF77DFF70BD00180020F7
:1040F00070B500282DD00446164802688A4203D1C4
:10410000154A13685B1C136006680E43124A156853
:10411000002901D0066005E00023036013600F4B07
:104120005B1C1E430068884201D000201060082DEF
:104130000CD30321284602F025F9012290073043D1
:10414000002900D03046D107884300E03046294698
:10415000A04770BDE4220020E8220020FFFFFF7F7F
:10416000F0B581B00F4E01243470B11CFF275037D9
:104170007A1C204600F040FD054670703A1A371848
:10418000F91C022000F038FDB8702D187619F47073
:1041900000F01CFD3071902070710020B071E81D9E
:1041A00001B0F0BD6C210020F0B585B00B46014692
:1041B000400707D00A46D0B299B2FEF757FA80B24C
:1041C00005B0F0BD802001906C4F724E6F4C0A46D6
:1041D0000392102008409DB2002D75D0002873D1A5
:1041E00002903878082804911ADD092820D00A287E
:1041F00043D11846644908404008A92800D3BAE0D2
:1042000053202070A370180A60700321204600F02C
:104210000BFD5B48294600F007FD002038703DE0AB
:10422000072828D15C4878442946FFF751FC35E03F
:10423000E81D4008A92800D39DE00198103050499E
:104240004855481900254570481D991C8AB24C49AB
:104250000093FFF79CFB052249482946FFF78EFB98
:104260000198C01CC1B20098C01D83B24548444AA1
:1042700001F0BEF812E000287AD00398C0B22946B7
:10428000FEF7F4F9002809D072E0FFF75BFC80210B
:104290000022204600F0F4FCFFF738FD38780028B3
:1042A000F3D1002038703A490870308004998906AB
:1042B00085D4FFF747FC04990806029804D501202D
:1042C00000F058FC02980499002805D148064CD407
:1042D000002038702E4908700020308000F0BAFCB1
:1042E000002801D1FFF72EFC8021002520462A4618
:1042F00000F0C6FC022806D8A17862781202511894
:10430000C01E884208D1FFF701FD38780028E5D0AB
:1043100030880028E2D002E000203870DDE71F4935
:10432000794404221648FFF7EDFB002812D01C49FF
:10433000794404221248FFF7E5FB002813D1104806
:10434000024645700199084610301070039A0A43DE
:10435000022303E0FFF704FF03460022D1B2500717
:1043600000D135E727E7308829E73088401F26E766
:104370000920FFF7DBFB0220FFF7D8FBDC2200203F
:104380006C210020EC220020FEFF0000001800201D
:10439000C8220020DE22002083FAFFFFD83400006C
:1043A000CD340000F0B581B007465D4C254614358C
:1043B000382228463946FFF7EAFA2169A068002921
:1043C00003D088470346A06803E01C2141432268CC
:1043D00053180026002810D02269411E002A0FD051
:1043E0000846009737462E461D4690472B463546D1
:1043F0003E46009F0246A06806E03046324603E093
:104400001C224A4321688A186168491E884210D2DA
:104410002169401C002908D000951D461646884792
:1044200032462B46009D064603E01C21414320688E
:104430004618787840280ADC202821DC102832D061
:10444000202862D159690020002966D14EE08028D9
:1044500020DC412830D0422857D15969002000295A
:104460005BD1D968002958D16268511E012A54D005
:10447000A2688A4251D0F16800294ED130692FE0FC
:1044800021282FD0222840D159690020002944D06A
:1044900021632DE0822832D0812836D1A168002006
:1044A000002932D139E0D9680020002935D02163B4
:1044B000587E002821D128E05969002000292CD1FC
:1044C000D968002929D1A168002926D0616801296D
:1044D00023D0D168002920D1516900291DD110694C
:1044E000206312E059690020002916D01869206362
:1044F000187E002809D00821A185E08205E06068C7
:10450000A168421E0020914207D0E268002A284696
:1045100003D0143418462146904701B0F0BDC04680
:1045200024230020F0B581B005463C4F3969B868B6
:10453000002902D08847064603E01C214143386821
:10454000461801243648854214DD3648854216D087
:10455000354885421BD0354885425CD130680028FB
:1045600050D0B46800F000F90146FA68204600F027
:104570006BF84FE02E498D4209D085424BD17968C6
:10458000B868491E0024884245D2401C04E0B8683F
:10459000002400283FD0401E264900240C60B8604B
:1045A00025480460254DAC60254804602868002833
:1045B00031D0E869234988422DD000282BD000242F
:1045C00020466968884226D200F044FB002822D1A8
:1045D000A868E968382670432A681018002902D0B4
:1045E0008847002807D0012803D1A86846432868D7
:1045F0008019FEF737FFA868401CA86029680029C9
:10460000DFD108E07068002805D000F0ADF8014661
:10461000B06888470024204601B0F0BD2423002064
:104620000200008002000040010000400300008002
:1046300001000080E0220020E422002080180020F9
:10464000E8220020445010B0F0B583B002920D462D
:104650000190394E002000907060002915D03C492F
:1046600079441C2728463A46FFF74CFA00280CD01C
:10467000384C7C447068401C706078432818214690
:104680003A46FFF73FFA0028F4D10199481C05D0BB
:1046900070688842009800D30846B06035600025F5
:1046A0000298F0603561254C2B487844092103C4F9
:1046B0002A4878442A4979446160A0600320207424
:1046C0006561083C2046183000F06AFAE06100F0AD
:1046D00049F81B4805601B480560A5601A4805603D
:1046E0002068002826D0E0691849884222D0002896
:1046F00020D00020616888421CD200F0ABFA00286C
:1047000018D1A068E168382568432268101800298C
:1047100002D08847002807D0012803D1A06845436C
:1047200020684019FEF79EFEA068401CA06021682A
:104730000029DFD103B0F0BD242300208018002021
:10474000E0220020E4220020E8220020445010B0A3
:104750009C3300008A3300005A3100006FFEFFFFD7
:10476000EBFCFFFF7047000080B50449884204D38A
:104770000349884201D200F005F880BD0000D0C096
:10478000807ED0C07A460249C91C891A401A7047F7
:104790008547D0C001DF704780B582B000900748E0
:1047A0006946FFF7F7FF01AA11600549884201D168
:1047B00002B080BD0420FFF7B9F9C04637010060A0
:1047C000C601009080B582B0064801A9FFF7E2FF5C
:1047D0006A4611600449884201D102B080BD0420BC
:1047E000FFF7A4F900020060F102009080B584B0E8
:1047F00000AB07C306486946FFF7CCFF03AA116068
:104800000449884201D104B080BD0420FFF78EF92D
:104810007F030060BC03009080B584B002910190DA
:10482000074801A9FFF7B6FF03AA116005498842AE
:1048300002D1039804B080BD0420FFF777F9C04689
:104840002C0500606705009080B588B001AF0FC7E8
:104850000A9805900B980690074801A9FFF79AFF60
:1048600007AA11600549884202D1079808B080BDA7
:104870000420FFF75BF9C0463B070060AD070090DE
:1048800080B582B0009007486946FFF783FF01AA10
:1048900011600549884202D1019802B080BD042010
:1048A000FFF744F9DB0A0060640A009080B584B029
:1048B00002910190074801A9FFF76CFF03AA11605C
:1048C0000549884202D1039804B080BD0420FFF757
:1048D0002DF9C046CF100060D810009080B584B08C
:1048E00000AB07C307486946FFF754FF03AA1160EE
:1048F0000549884202D1039804B080BD0420FFF727
:1049000015F9C0462B1F0060311F009080B586B09E
:1049100000AF0FC70898049007486946FFF73AFFB1
:1049200005AA11600549884202D1059806B080BDEC
:104930000420FFF7FBF8C046172B0060C72B009040
:1049400080B586B000AF0FC7089804900748694645
:10495000FFF720FF05AA11600549884202D105989A
:1049600006B080BD0420FFF7E1F8C046F32C0060DC
:10497000E32C009080B584B000AB07C306486946BD
:10498000FFF708FF03AA11600449884201D104B06F
:1049900080BD0420FFF7CAF8593300602B33009024
:1049A00080B584B000AB07C306486946FFF7F2FE46
:1049B00003AA11600449884201D104B080BD0420DB
:1049C000FFF7B4F831340060CA34009080B584B089
:1049D00002910190074801A9FFF7DCFE03AA1160CC
:1049E0000549884202D1039804B080BD0420FFF736
:1049F0009DF8C046373E0060503E009080B586B0BE
:104A000000AF0FC70898049006486946FFF7C2FE3A
:104A100005AA11600449884201D106B080BD042076
:104A2000FFF784F8A64200604842009080B586B047
:104A300000AF0FC70898049006486946FFF7AAFE22
:104A400005AA11600449884201D106B080BD042046
:104A5000FFF76CF87D430060E043009080B586B0BE
:104A600000AF0FC70898049006486946FFF792FE0A
:104A700005AA11600449884201D106B080BD042016
:104A8000FFF754F845440060F344009080B588B0C7
:104A900001AF0FC70A9805900B980690064801A928
:104AA000FFF778FE07AA11600449884201D108B0D7
:104AB00080BD0420FFF73AF84D4500603E45009068
:104AC00080B586B001AF0FC7064801A9FFF762FEA7
:104AD00005AA11600449884201D106B080BD0420B6
:104AE000FFF724F8454600608C46009080B586B0FC
:104AF00001AF0FC7064801A9FFF74CFE05AA1160D8
:104B00000449884201D106B080BD0420FFF70EF8A9
:104B1000E94700601947009080B586B000AF0FC725
:104B20000898049006486946FFF734FE05AA11600C
:104B30000449884201D106B080BD0420FEF7F6FF8B
:104B4000BA5300601E53009080B582B0074801A997
:104B5000FFF720FE6A4611600549884202D100989D
:104B600002B080BD0420FEF7E1FFC046895B006013
:104B7000455B009080B582B0009007486946FFF71A
:104B800009FE01AA11600549884201D102B080BD29
:104B90000420FEF7CBFFC046E16200606F62009028
:104BA00080B582B0009007486946FFF7F3FD01AA7F
:104BB00011600549884202D1019802B080BD0420ED
:104BC000FEF7B4FF586400601F64009080B582B0A7
:104BD000074801A9FFF7DEFD6A46116005498842D2
:104BE00002D1009802B080BD0420FEF79FFFC046AE
:104BF0006E6800607F68009080B584B000AB07C32A
:104C000007486946FFF7C6FD03AA116005498842B7
:104C100002D1039804B080BD0420FEF787FFC04690
:104C2000D47000608770009080B584B002910190CC
:104C3000064801A9FFF7AEFD03AA116004498842A6
:104C400001D104B080BD0420FEF770FF1C7200602B
:104C5000F372009080B582B0074801A9FFF79AFD72
:104C60006A4611600549884202D1009802B080BDB1
:104C70000420FEF75BFFC046CF7300607F73009097
:104C800080B584B000AB07C307486946FFF782FDD3
:104C900003AA11600549884203D103A8008804B023
:104CA00080BD0420FEF742FFD17400602B74009099
:104CB000F0B581B0044633480078002803D0832142
:104CC000344A7A4443E00698452803D88321324A7F
:104CD0007A443CE0072903D18321304A7A4436E004
:104CE0001D46009040201E5C002E18D0052E08D1D5
:104CF000284641302A4979440522FEF703FF00285F
:104D00002BD0284641300021264A7A44435C0327B1
:104D10000F40D75D5F404754491C8E42F6D1452075
:104D2000285C4630009988420ED141351648294604
:104D30003246FEF72CFE1548068015480721017003
:104D400009201049087006E08321174A7A4402239B
:104D5000204600F04DFB01B0F0BD0B4D04262E7037
:104D6000681C124979443246FEF711FE681D10494D
:104D700079443246FEF70BFE2878431D83212046F6
:104D80002A46E6E7DC2200206C210020DE220020FB
:104D9000C8220020582D00004C2D0000422D00009C
:104DA0002A2D00001C2D0000E42C0000C22C000065
:104DB000BB2C0000F0B581B01D460E4604461846D7
:104DC00000F00AFB002804D068460421FFF724FD08
:104DD00004E0684604222946FEF7D9FD174F082251
:104DE00038463146FEF7D3FD38460830694604227E
:104DF000FEF7CDFD00207873022139730121B973CC
:104E0000F8733874284600F0E7FA8625002807D0A2
:104E100028467930C1B204222046FEF7AFFD04E0F7
:104E2000694604222046FEF7B2FD044A11232046BB
:104E3000294600F0DDFA01B0F0BDC0466C2100202B
:104E4000F0B583B0029088794B791B021F188878DF
:104E500001904B780E781546093DACB2A74204D0BC
:104E6000D01FD21F92B297421BD13D46002E08D0D0
:104E700083211C4A7A440223029800F0B9FA03B055
:104E8000F0BD022B18DC012B23D0022B1DD1A8B2C0
:104E90006A461060CB1D002202980199FFF708FFB7
:104EA000EDE7E4B2A742E1D0D2B297420546DDD0A9
:104EB00083210D4A7A44DEE7032B0ED0C12B04D1A7
:104EC00083210A4A7A440423D6E783210A4A7A4492
:104ED000D1E78321064A7A44CDE78321054A7A4403
:104EE0000823C9E7CA2B0000682B0000762B0000BE
:104EF000422B0000542B0000722B000080B581690A
:104F00008A784B781B029B180A78812A09D0832A59
:104F10000DD0862A0FD1C91C00220346FFF74AFF95
:104F200080BDCA1C9BB2812100F062FA80BDC91C01
:104F30009AB2FFF785FF80BD70B5012A13D10D46E7
:104F40000146094C20462A46FEF721FD60194026FD
:104F5000721B00252946FEF711FD812021463246AD
:104F60002B46FEF77DFE70BD70230020828181609C
:104F7000002242828283827581617047F0B585B0DC
:104F80000446007FC01EC0B2012857D8A08A628A9A
:104F9000904227D9A57D032301260295002D00D03C
:104FA00033464F1E00250E460395ED1B7D41AD0097
:104FB0005D1940235F1B811AB94200DC0F46019541
:104FC00078190490012E3546039E029806D11D489B
:104FD000042621463246FEF7DAFCA07D00280BD0DD
:104FE000401E13E02AD100206082A083A075A16832
:104FF000A1611349087021E03420205C11498855D3
:1050000001203043627D0A54461C207D0D4B98558B
:10501000A169002906D0BAB201981818638AC91884
:10502000FEF7B5FC608AC0196082A07D401CA075A7
:10503000049881B203482A46FFF77EFF05B0F0BD11
:10504000DC22002070230020F0B587B016460A4607
:1050500004460371007F811E02290FD2DA4806211F
:1050600001727A21C9433A313422A1540021A17539
:10507000042222770830A061618263E01D46042883
:1050800005D100206082A083A075A068A061681E81
:105090000023191A41418F00781CB04244D8049073
:1050A000012D059706950CD1154604222046294668
:1050B00037461E46FEF76BFC2A46069D33463E46A3
:1050C000059F608A002811D0012D29D120460E307D
:1050D00015460422214637461E46FEF713FD2A4692
:1050E000069D33463E46059F002819D003213846C9
:1050F0000843B04218D80191D01903901546D057F3
:105100007A21C9437A3149B28522884247DDAE48C7
:10511000042101723A3215463422A554A3750DE0DC
:1051200002203843B04215D9A748852101727A215F
:10513000C9433A313422A154A375042121770830A0
:10514000A06163820120A08221792046FFF716FF2B
:1051500007B0F0BD607FA8425AD1207F012866D1F8
:10516000012D00D089E00420039010462146154609
:10517000039A37461E46FEF7C5FC2A46069D33466F
:105180003E46059F002878D08F48062101727A217B
:10519000C9433A313422A154A3750399CEE702934F
:1051A0000698012813D1207F01281CD121460E31F9
:1051B000009204222046FEF7A5FC009A002806D0A3
:1051C00003980078511CC9B2884200D0DDE0207FEE
:1051D000012808D10698012879D103980078511C3C
:1051E000C9B2884273D102203843285C0499695CB3
:1051F00009020F18A089C01E874221DD724801995B
:1052000001723A3234216254029AA275042167E095
:105210007A20C043014608316B4A11723A3034217A
:105220006054A375042020770832A26189E7012D1C
:105230003ED100206082A083A075A068A06187E7AE
:10524000039800788128029B069D04D086284CD0C4
:10525000832800D084E00092012D52D15B4979442B
:10526000042220460492FEF74DFC002800D1A0E065
:1052700057497944042220463FE0D119D05DA27DF0
:10528000904215D102930498361A608AA28A121AA3
:10529000964200DB1646B2B2A3691818491CFEF705
:1052A00076FB608A80196082A07D401CA0753EE07C
:1052B0004548042101727A22D2433A321D463423F2
:1052C000E254A57521770830A06165823AE73E482F
:1052D000042101723A3213463422A354029AA27571
:1052E00021770830A06162822CE7012D38D100922D
:1052F00038497944042220460492FEF703FC002832
:1053000057D00598361AFF1CBE4200DB3E46B2B2AB
:10531000A0690399FEF73BFBA78266826577029836
:10532000A07520460E3004222146FEF730FB608A2D
:10533000012D01D1A18A0CE0A18ACA1C824208D2A7
:105340002148032101727A21C9433A313422A15400
:105350005AE7884213D2012020770020A062F7E6A6
:105360001948012101723A3215463422A554A37519
:10537000042222770830A0616382A182E4E6022041
:1053800020772046FFF7BAFDE2E60F4D16460422CD
:1053900028462146FEF7FBFA029868713A362E71CC
:1053A0000122AA710620E87108212846FFF7C4FDF2
:1053B000CEE605480B210172009A3A32342162543C
:1053C0000299A175049A54E670230020E427000096
:1053D000D42700005427000080B5044979440422F2
:1053E000FEF790FB0021091A484180BD66260000A7
:1053F00010B534240155002181750324047782619E
:1054000041828382417FFFF7B9FD10BD0249002030
:105410000860024908607047B4230020B0230020D0
:1054200010B50748002444704F210170012181709C
:105430000221C1700421FFF7F7FB204610BDC046D2
:105440000018002070B582B06D4600246C704F26A5
:105450002E700220A8700320E8702C7105212846C8
:10546000FFF7E2FB6C702E700120A870E870042139
:105470002846FFF7D9FB204602B070BD10B582B0B8
:1054800001A8002444704F21017001218170022184
:10549000C1700421FFF7C8FB204602B010BD000018
:1054A000B0B582B0144800240460144804606D460E
:1054B0004F2028706C700520A8700420E87001202F
:1054C00028716971AC71012A05DC002A0AD0012A11
:1054D0000AD1042006E0022A03D0032A04D10220C4
:1054E00000E00320694688716846C3710821FFF710
:1054F0009BFB002002B0B0BDB4230020B0230020ED
:1055000010B582B06846002444704F220270052214
:1055100082700422C2700122027141718471C471CF
:105520000821FFF781FB204602B010BDB0B582B064
:105530000D4668460024447050210170032181709B
:10554000C5704021017144710621FFF76DFB2806EB
:1055500001D5074800E0054801687F221540012277
:10556000AA400A430260204602B0B0BDB423002026
:10557000B0230020B0B582B00D46684600244470C8
:105580005021017003218170C57080210171447127
:105590000621FFF749FB280601D5074800E005482A
:1055A00001687F2215400122AA40914301602046F4
:1055B00002B0B0BDB4230020B0230020080601D5FE
:1055C000054800E0034802787F2001400120884020
:1055D00010407047B4230020B023002010B582B0E3
:1055E0006846002444704F22027002228270032217
:1055F000C27001710521FFF717FB204602B010BDF4
:10560000B0B582B01C461546684650220270C17083
:10561000202101714371D91C8170090A4170062152
:10562000FFF702FB28462146FFF7FEFA002002B0F2
:10563000B0BD10B582B0684600244470502303709A
:1056400003238370C1703021017142710621FFF77D
:10565000EBFA204602B010BD70B504460220002CC3
:1056600012D015460E4645208100204600F0D2FF9C
:10567000002E01D0F0202650DC200121215425707D
:105680002046FFF7C3FE002070BDB0B50446DC2005
:10569000012121541720C543601943218900405836
:1056A000002806D04068FFF75FF8024621792046BF
:1056B00090470835F0D12046FFF7E0FE2046FFF77F
:1056C000AFFE0020B0BD03460220002A07D0002014
:1056D000022B04D8D8000818F4214250002070474B
:1056E00080B5FFF7AFFE002080BDF0B581B00C465D
:1056F00005460026F4272846314600F069F90028BF
:1057000007D0E8590068FFF72FF8024628462146DF
:1057100090470837761C032EEDD1002001B0F0BD74
:10572000F0B581B00C4605460026F42728463146E0
:1057300000F04EF9002807D0E8594068FFF714F848
:1057400002462846214690470837761C032EEDD1A5
:10575000002001B0F0BDB0B504460546E835284646
:1057600000F07FFBD42001212150EE20205AD821C7
:105770006050E820215C1F200840022808D0012842
:105780000BD000280ED12046294600F02EF90EE05D
:105790002046294600F0E1FA09E02046294600F0BB
:1057A000B8FA04E0802001402046FFF7BFFE002049
:1057B000B0BDF0B583B002920446019100291CD01F
:1057C0002546DC350027F4262046394600F000F94E
:1057D00000280DD0A0598069002809D02978032914
:1057E00006D1FEF7C1FF034620460199029A984769
:1057F00008367F1C032FE7D130E0D420205803283F
:105800002CD180202058E16F81420AD9091AE16722
:10581000814200D301468AB22046029900F00EFD73
:105820001CE02646DC360025F4272046294600F0F9
:10583000CFF800280BD0E0590069002807D0317854
:10584000032904D1FEF790FF014620468847083718
:105850006D1C032DE9D1204600F0F7FC002003B0B9
:10586000F0BDF0B581B00446009100291BD0274659
:10587000DC370026F4252046314600F0A9F8002840
:105880000CD060594069002808D03978032905D127
:10589000FEF76AFF02462046009990470835761CBD
:1058A000032EE8D14EE0D4202058022843D1E069ED
:1058B000256AA8420BD911210A01A1584919A15002
:1058C000401BE06182B2204600F0AAFC33E0A669EA
:1058D0003046294600F056FDAE420FD300290DD1C7
:1058E000D82020582746D837864207D200252046A0
:1058F00029462A4600F094FC3D601CE02646DC3632
:105900000025F4272046294600F062F800280BD035
:10591000E059C068002807D03178032904D1FEF788
:1059200023FF01462046884708376D1C032DE9D127
:10593000204600F096FCE020205CE034012801D1F4
:1059400000202070002001B0F0BD70B5044680201A
:1059500040212150DC200122225421620025F4261E
:105960002046294600F034F8002807D0A0594068A6
:10597000FEF7FAFE024621792046904708366D1C54
:10598000032DEDD1002070BD017400207047002070
:1059900070470020704770B50446DC20205C032867
:1059A00014D10025F4262046294600F011F80028DD
:1059B00008D0A059C069002804D0FEF7D5FE0146E2
:1059C0002046884708366D1C032DECD1002070BDA1
:1059D00002460020022907D8C8001018F4214158B7
:1059E0000120002900D10846704780B54A78042A72
:1059F00008DD072A0FDC052A14D0062A1BD100F087
:105A000021F81DE0002A10D0012A17D0032A12D154
:105A100000F030F914E0082A0AD0092A0BD100F06E
:105A2000B9F80DE000F090F80AE000F001F907E0A5
:105A300000F0E7F804E000F062F901E000F037F967
:105A4000002080BDB0B582B00D4604464988080AE2
:105A5000052812DC01281AD0022822D0032836D1CA
:105A6000C8B2022838DC00285ED0012864D00228A1
:105A70002DD1F0202058C0680CE006281BD0072844
:105A800022D00F2823D1F0202058C06902E0F02056
:105A900020580068FEF768FE0246207C01A9904766
:105AA00030E0F4202058002100282CD0217C00294F
:105AB00022D0C06A21E0207C002808D1F4202058A0
:105AC000002804D0406B18E0207C00280ED020462F
:105AD000294600F014F925E0032829D004282FD006
